:1000000014C023C022C021C020C01FC01EC01DC0FC
:100010001CC01BC01AC019C018C0FDC016C015C036
:1000200014C013C012C011C010C011241FBECFE5F0
:10003000D1E0DEBFCDBF10E0A0E6B0E001C01D9270
:10004000A039B107E1F702D0CDC2DACFEF92FF922B
:100050000F931F93DF93CF93CDB7DEB7A0970FB663
:10006000F894DEBF0FBECDBF82E081BB89E187BBC4
:1000700057D082E084D0C5D037D194D142D0789483
:100080007E010894E11CF11C80E2F70111928A952F
:10009000E9F765E070E080E090E045E550E0970129
:1000A00000E210E0C4D18E010F5D1F4FF701819176
:1000B0007F0127D0E016F106C9F7FFCF5D9BFECF89
:1000C0008CB95E9BFECF64E670E080E090E042D0A9
:1000D00008950F931F93CF93DF93082F192FC0E03C
:1000E000D0E005C0EBDF2196C233D10529F0F8013D
:1000F00081918F018823B1F7DF91CF911F910F91EB
:1001000008955D9BFECF8CB95E9BFECF64E670E0E8
:1001100080E090E01FD008955F9BFECF8CB10895E2
:1001200082E08BB988E18AB986E083B981E082B93F
:1001300080EA89B908954FB77894109263001092BD
:100140006200209162003091630028173907C8F3DC
:100150004FBF08959B01AC0180E090E0DC0109C035
:1001600064E670E0000061507040E1F70196A11D67
:10017000B11D82179307A407B50790F3089592E085
:100180009FBD99E19EBD2FEF3FEF35BD24BD81306E
:1001900041F0813018F0823059F407C08FB5806883
:1001A00002C08FB580628FBD08958FB5806A8FBD04
:1001B00008958EB58770809360008EB5887F8EBD60
:1001C00008959EB580916000892B8EBD08952CB551
:1001D0003DB5C90108959BBD8ABD089599BD88BDEF
:1001E000089583B787708093610083B7887F83BF4A
:1001F000089593B780916100892B83BF089512BE43
:10020000089582E080BF85EB86BF81E083BF89B718
:10021000816089BF08951F920F920FB60F9211242B
:100220002F938F939F93AF93BF938091680090918A
:10023000690001969093690080936800809168003E
:100240009091690021E0893B920768F01092690063
:100250001092680080916200909163000A969093DA
:10026000630080936200809162009091630023E0BC
:10027000883E9207B8F0109263001092620080915D
:10028000640090916500A0916600B09167000196AE
:10029000A11DB11D8093640090936500A09366003A
:1002A000B09367008091640090916500A091660012
:1002B000B09167000097A105B10561F0109264004C
:1002C00010926500109266001092670088B391E06A
:1002D000892788BBBF91AF919F918F912F910F90EC
:1002E0000FBE0F901F90189588B3806C88BB969AAC
:1002F00087B3806C87BBBD988E9A88E18DB90895CD
:10030000CF93DF93DFB7F8949EB1907F9EB9C798E3
:100310008FB9CDB1C160969861E070E080E090E067
:1003200019DF80E1CDB98150E9F7969ADFBF8FB12F
:10033000DF91CF9108950F931F93DF93CF9300D058
:1003400000D00F92CDB7DEB796982D834C835B8398
:100350006A837983D5DF7981872FD2DF6A81862FFF
:10036000CFDF5B81852FCCDF4C81842FC9DF2D81CE
:10037000822FC6DF10E008C08FEFC2DF813019F492
:10038000969A80E005C01F5F1017B0F3969A81E03F
:100390000F900F900F900F900F90CF91DF911F91C2
:1003A0000F9108950F93CF93F894969ACAE08FEF28
:1003B000A7DFC150E1F708C084E690E0BCDECF5F64
:1003C000CA3011F48FEF30C080E440E050E0BA0151
:1003D00025E908E0B0DF813079F7C0E008C084E6A5
:1003E00090E0A9DECF5FCA3011F48EEF1DC081E42A
:1003F00040E050E0BA012FEF08E09DDF882379F755
:1004000080E540E052E060E070E02FEF94DF109272
:100410008F0010928E0010926A0010926B00109262
:100420006C0010926D0080E0CF910F910895AF9213
:10043000BF92CF92DF92EF92FF920F931F93CF93D1
:10044000DF936B017C015A01D22FC32F969881E56F
:1004500057DFD701C6013FE0B695A79597958795D9
:100460003A95D1F74DDFD701C60127E0B695A7959C
:10047000979587952A95D1F743DF8C2D880F40DF1C
:1004800080E03EDF8FEF3CDF9AE0C92ED12C06C022
:100490000894C108D108C114D10461F08FEF30DF96
:1004A0008823B1F707C00894C108D108C114D1044A
:1004B00021F40EC08AE0C82ED12C8FEF21DF8E3FB1
:1004C00091F706C08FEF1CDF0894C11CD11C02C03D
:1004D000CC24DD24CA14DB04A8F3CE01C92EDC2E03
:1004E000C0E0D0E006C08FEF0BDFF60181936F0113
:1004F0002196C017D107B8F30A0D1B1D04C08FEF5A
:10050000FFDE0F5F1F4FF2E000301F07C0F38FEFD9
:10051000F7DE8FEFF5DE969ADF91CF911F910F9165
:10052000FF90EF90DF90CF90BF90AF9008959B0128
:10053000AC01E9E05695479537952795EA95D1F7AF
:1005400020936A0030936B0040936C0050936D00D1
:10055000717070938F0060938E000895EF92FF92F8
:100560000F931F93CF93C82FE82EFF2460916A004A
:1005700070916B0080916C0090916D0040918E00A5
:1005800050918F002EE630E0870151DF80918E0080
:1005900090918F008E0D9F1D90938F0080938E0001
:1005A00022E080309207B9F410928F0010928E00F2
:1005B00080916A0090916B00A0916C00B0916D00E9
:1005C0000196A11DB11D80936A0090936B00A093CA
:1005D0006C00B0936D008C2FCF911F910F91FF9005
:0805E000EF900895F894FFCF9D
:00000001FF
