:1000000014C01BC01AC019C018C017C016C015C034
:1000100014C013C012C011C010C00FC00EC00DC05C
:100020000CC00BC00AC009C008C011241FBECFE518
:10003000D1E0DEBFCDBF2ED03CC0E2CF9B01AC01F2
:1000400080E090E0DC0109C064E670E000006150EF
:100050007040E1F70196A11DB11D82179307A40717
:10006000B50790F308955D9BFECF8CB95E9BFECFE4
:1000700008955D9BFECF8CB95E9BFECF089582E014
:100080008BB988E08AB986E083B981E082B980EAD9
:1000900089B90895CF9382E081BBF1DF80E0C82F5A
:1000A000CF5FE7DF60E177E280E090E0C7DF8C2F91
:0600B000F6CFF894FFCF2B
:00000001FF
