:100000004EC0FDC367C066C065C064C063C062C047
:1000100061C060C05FC05EC05DC043C35BC05AC00A
:10002000C8C358C057C056C0EAC1063E5345542005
:1000300054494D455220202020202000A2013E534B
:10004000455420484F4C442054494D4520200095AC
:10005000013E5354415254202020202020202020B3
:100060002000E2003E544553542020202020202030
:10007000202020200083003E544F47474C45204C11
:1000800045442020202020006B003E52455345541B
:100090002020202020202020202000C50000112426
:1000A0001FBECFE5D1E0DEBFCDBF10E0A0E6B0E0DF
:1000B000EAE7FBE002C005900D92A83BB107D9F733
:1000C00010E0A8EBB0E001C01D92A73CB107E1F73A
:1000D000DED151C595CF8091AD0095E08927809301
:1000E000AD00882319F080E690E002C083E690E03E
:1000F00016D48FEF99E6A8E181509040A040E1F737
:1001000000C00000089580E060E025D487E690E01C
:1001100006D480E061E01FD483E790E000D4F89437
:1001200040E051E081E090E025E431E01DC06091C5
:10013000AD0082990CC03BBD2ABDE2B3DC0102C018
:10014000AA0FBB1F6A95E2F7EA2BE2BB0DC05BBDAD
:100150004ABDE2B3DC0102C0AA0FBB1F6A95E2F7F9
:10016000BD0160956E2362BB8499E1CF8FEF94E36C
:10017000ACE081509040A040E1F700C0000080E07A
:1001800091E09BBD8ABD7894089585E08093AD0091
:100190001092C5001092C4001092AF001092AE00F1
:1001A00080E090E060E070E0C6D4E199FECF60911D
:1001B000AE007091AF0082E090E0BDD4E199FECF37
:1001C0007894089580E060E0C6D380E890E0A7D3FB
:1001D0001092BE001092BF001092C0001092C10099
:1001E00015C080E061E0B7D38EEB90E062E033D4DD
:1001F00081E990E094D384EC90E062E02CD480918B
:10020000B900882319F01092B90008958091BE00BA
:100210009091BF00A091C000B091C1002091C40096
:100220003091C50040E050E082179307A407B5075E
:10023000C0F222B381E090E00090AD0002C0880FD0
:10024000991F0A94E2F7282B22BB85E491E09BBD1D
:100250008ABD1092BE001092BF001092C000109292
:10026000C1008091AE009091AF00A0E0B0E020917D
:10027000BE003091BF004091C0005091C1002817CE
:1002800039074A075B0798F380E091E09BBD8ABD80
:1002900022B381E090E00090AD0002C0880F991F6A
:1002A0000A94E2F78095822382BB0895CF93DF936F
:1002B000EC01F89480E060E04ED3CE0162E0CBD355
:1002C000839910C08FEF90E7A2E081509040A0404A
:1002D000E1F700C00000839905C0888199810196EB
:1002E00099838883829910C08FEF90E7A2E08150B4
:1002F0009040A040E1F700C00000829905C08881CD
:1003000099810197998388838499D4CF849BFECF68
:100310008FEF94E3ACE081509040A040E1F700C043
:1003200000007894DF91CF9108958EEA90E0BEDFCF
:100330006091AE007091AF0082E090E0FCD3E19953
:10034000FECF089584EC90E0B1DF6091C40070911D
:10035000C50080E090E0EFD3E199FECF0895FC0165
:1003600054915093C60041E0642F6D5E242F30E01D
:10037000FC01E20FF31FE4912A533F4FD901EC93A4
:100380004F5F461799F7515079F70895EF92FF9212
:100390001F93DF93CF930F92CDB7DEB7182F80E076
:1003A00060E09983D8D2E12E9981F92E8091B8002E
:1003B00090E063E170E0A9D301968E0D9F1DAFD24E
:1003C00080E061E0C8D22091B80030E08091C600A2
:1003D00090E00197281739075CF48091B80090E00D
:1003E000019663E170E091D302968E0D9F1D97D226
:1003F0000F90CF91DF911F91FF90EF9008951F9282
:100400000F920FB60F9211242F933F938F939F93C8
:10041000AF93BF938FE798E3A1E081509040A04055
:10042000E1F700C0000080B380958C7129F188301D
:1004300091F08031D1F08430D9F42091B80030E0CF
:100440008091C60090E00197281739078CF48091BD
:10045000B8008F5F07C08091B800882349F0809171
:10046000B80081508093B80003C081E08093B90048
:1004700080B38C718C31E1F7BF91AF919F918F91D7
:100480003F912F910F900FBE0F901F90189580E60F
:1004900081BB8FEF87BB82B38C6182BB83E086B95F
:1004A000FAD28BB780618BBF8CE185B980E090E098
:1004B0003ED39093C5008093C400E199FECF82E0C3
:1004C00090E035D39093AF008093AE0052D217D214
:1004D00080E060E040D285E990E021D280E061E0F8
:1004E0003AD282EA90E01BD28FEF93EDA0E38150E5
:1004F0009040A040E1F700C00000C9D078948AE2A3
:1005000090E02DDFFCD186EC90E040DF8FEF90E7AC
:10051000A2E081509040A040E1F700C0000080912F
:10052000B900882379F31092B900E9D18091B8001D
:1005300090E063E170E0E9D2FC01EA53FF4F0288EA
:10054000F389E02D0995DBCF5D9BFECF8CB95E9BD7
:10055000FECF64E670E080E090E042D008950F9313
:100560001F93CF93DF93082F192FC0E0D0E005C071
:10057000EBDF2196C233D10529F0F80181918F017B
:100580008823B1F7DF91CF911F910F9108955D9B63
:10059000FECF8CB95E9BFECF64E670E080E090E019
:1005A0001FD008955F9BFECF8CB1089582E08BB978
:1005B00088E18AB986E083B981E082B980EA89B9A5
:1005C00008954FB778941092BD001092BC0020910E
:1005D000BC003091BD0028173907C8F34FBF0895FC
:1005E0009B01AC0180E090E0DC0109C064E670E0B2
:1005F000000061507040E1F70196A11DB11D821706
:100600009307A407B50790F3089592E09FBD99E181
:100610009EBD2FEF3FEF35BD24BD813041F08130CD
:1006200018F0823059F407C08FB5806802C08FB5CA
:1006300080628FBD08958FB5806A8FBD08958EB595
:1006400087708093BA008EB5887F8EBD08959EB561
:100650008091BA00892B8EBD08952CB53DB5C90196
:1006600008959BBD8ABD089599BD88BD089583B73F
:1006700087708093BB0083B7887F83BF089593B74B
:100680008091BB00892B83BF089512BE089582E03C
:1006900080BF85EB86BF81E083BF89B7816089BF5A
:1006A00008951F920F920FB60F9211242F938F93DC
:1006B0009F93AF93BF938091C2009091C300019626
:1006C0009093C3008093C2008091C2009091C300B8
:1006D0008D3D910568F01092C3001092C200809188
:1006E000BC009091BD000A969093BD008093BC0021
:1006F0008091BC009091BD0023E0883E9207B8F045
:100700001092BD001092BC008091BE009091BF007D
:10071000A091C000B091C1000196A11DB11D8093B0
:10072000BE009093BF00A093C000B093C100BF91E2
:10073000AF919F918F912F910F900FBE0F901F90AF
:10074000189588B3806C88BB969A87B3806C87BBFA
:10075000BD988E9A88E18DB90895CF93DF93DFB766
:10076000F8949EB1907F9EB9C7988FB9CDB1C16002
:10077000969861E070E080E090E032DF80E1CDB9F2
:100780008150E9F7969ADFBF8FB1DF91CF9108953D
:10079000BE9A87B38F7587BB88E18DB985B78D7F8A
:1007A00085BF85B7816085BF8BB780648BBFFEDE58
:1007B00008951F920F920FB60F9211242F933F931B
:1007C0004F935F936F937F938F939F93AF93BF9359
:1007D000EF93FF93769A8FB1DADE959AFF91EF91BE
:1007E000BF91AF919F918F917F916F915F914F9149
:1007F0003F912F910F900FBE0F901F9018951F9251
:100800000F920FB60F9211248F93829B05C06E98A2
:1008100087B38F7187BB05C06E9A87B38F7587BB0F
:10082000BE9A8F910F900FBE0F901F9018952FB703
:10083000F894E091B000F091B10087FF03C090817F
:10084000906402C090819F7B9083E091B000F09112
:10085000B10086FF03C09081906202C090819F7DAD
:100860009083E091B000F091B10085FF03C09081CA
:10087000946002C090819B7F9083E091B000F091E2
:10088000B10084FF03C09081926002C090819D7F7F
:100890009083E091B000F091B100908191609083DD
:1008A00090819E7F908383FF03C09081906402C0FB
:1008B00090819F7B908382FF03C09081906202C0F1
:1008C00090819F7D908381FF03C09081946002C0DE
:1008D00090819B7F908380FF03C08081826002C0F3
:1008E00080818D7F808380818160808380818E7F05
:1008F00080838AE68A95F1F700C02FBF0895E091C2
:10090000B200F091B30080818F7B808381E08FDF24
:100910008FE99FE00197F1F700C000000895CF93A1
:10092000DF93E091B200F091B30020812064208336
:10093000C82FD92F01C07BDF89918823E1F7DF9190
:10094000CF910895E091B200F091B300908190644E
:1009500090836DDF0895E091B200F091B300908133
:100960009F7B9083662311F4805801C080545FDF21
:100970000895E091B200F091B30080818F7B808375
:100980008FE295E70197F1F700C00000E091B00019
:10099000F091B10080818260808380818460808357
:1009A00080818160808380818E7F80838FE097E269
:1009B0000197F1F700C00000E091B000F091B100A4
:1009C00080818160808380818E7F808387EC90E04E
:1009D0000197F1F700C00000E091B000F091B10084
:1009E00080818160808380818E7F80838FE097E229
:1009F0000197F1F700C00000E091B000F091B10064
:100A000080818D7F808380818160808380818E7FE3
:100A100080839AE69A95F1F700C088E208DF8CE0BF
:100A200006DF86E004DF81E002DF0895CF93DF93E5
:100A3000C82FD92F01C086DF89918823E1F7DF9184
:100A4000CF9108958F708A3010F4806302C089506E
:100A5000806478DF0895FF920F931F93CF93DF9305
:100A6000EC01F62EFA9484EB90E0E0DF8E010F0D9E
:100A7000111DF801808182958F70E4DFF80180817B
:100A8000E1DFFA94FF2DFF3F89F7DF91CF911F91AE
:100A90000F91FF90089580E0B8DD84EC99E095BD5A
:100AA00084BD8EB582608EBD8EEF90E09BBD8ABD09
:100AB000BB9A089585E491E09BBD8ABD08958AB5EF
:100AC0009BB521E08534920728F48AB59BB50A9638
:100AD0009BBD8ABD08958AB59BB58F3F910528F0CF
:100AE0008AB59BB50A979BBD8ABD089521E08634DF
:100AF000920718F085E491E005C08E3F910510F44F
:100B00008EEF90E09BBD8ABD08955527002480FF9D
:100B100002C0060E571F660F771F6115710521F081
:100B200096958795009799F7952F802D0895A8E1C0
:100B3000B0E042E005C011D0272F10C0DC01862FA5
:100B4000E82FE199FECF1FBA05C0EEBBE09AE3950E
:100B50000DB20D924150C8F70895262FE199FECFAE
:100B60001CBA1FBA8EBB2DBB0FB6F894E29AE19A5D
:0A0B70000FBE01960895F894FFCF20
:100B7A004F4E004F46460053454C20544F2045588F
:100B8A00495400444F574E20544F2054524947006D
:100B9A0050524553532053454C20544F20584954E2
:100BAA0000207E200044657369676E65642042797F
:100BBA003A00526F62627920546F6E670005010035
:080BCA00380032003078000011
:04000003000001C434
:00000001FF
